{
  "contractName": "helloWorld",
  "abi": [
    {
      "constant": true,
      "inputs": [],
      "name": "renderHelloWorld",
      "outputs": [
        {
          "name": "",
          "type": "string"
        }
      ],
      "payable": false,
      "stateMutability": "pure",
      "type": "function"
    }
  ],
  "bytecode": "0x608060405234801561001057600080fd5b5061013f806100206000396000f300608060405260043610610041576000357c0100000000000000000000000000000000000000000000000000000000900463ffffffff168063942ae0a714610046575b600080fd5b34801561005257600080fd5b5061005b6100d6565b6040518080602001828103825283818151815260200191508051906020019080838360005b8381101561009b578082015181840152602081019050610080565b50505050905090810190601f1680156100c85780820380516001836020036101000a031916815260200191505b509250505060405180910390f35b60606040805190810160405280600a81526020017f68656c6c6f576f726c64000000000000000000000000000000000000000000008152509050905600a165627a7a723058208976ba3b2696673152536327990e6136673711fc42784ce43cfd18bc5c61b0b00029",
  "source": "//0xb84b12e953f5bcf01b05f926728e855f2d4a67a9\r\n\r\npragma solidity ^0.4.22;\n\n\r\ncontract helloWorld {\n function renderHelloWorld () public pure returns (string) {\n   return 'helloWorld';\n }\n}\r\n\r\ncontract Mortal {\r\n    /* Define variable owner of the type address */\r\n    address owner;\r\n\r\n    /* This function is executed at initialization and sets the owner of the contract */\r\n    function Mortal() { owner = msg.sender; }\r\n\r\n    /* Function to recover the funds on the contract */\r\n    function kill() { if (msg.sender == owner) selfdestruct(owner); }\r\n}\r\n\r\ncontract Greeter is Mortal {\r\n    /* Define variable greeting of the type string */\r\n    string greeting;\r\n\r\n    /* This runs when the contract is executed */\r\n    function Greeter(string _greeting) public {\r\n        greeting = _greeting;\r\n    }\r\n\r\n    /* Main function */\r\n    function greet() constant returns (string) {\r\n        return greeting;\r\n    }\r\n}\r\n",
  "sourcePath": "C:\\PersonalProj\\Smart contract\\swap\\contracts\\truffle\\contracts\\Test.sol",
  "compiler": {
    "name": "solc",
    "version": "0.4.24+commit.e67f0147.Emscripten.clang"
  },
  "schemaVersion": "2.0.1",
  "updatedAt": "2018-11-24T01:52:05.016Z"
}